{
  "abi": [
    {
      "inputs": [],
      "stateMutability": "nonpayable",
      "type": "constructor"
    },
    {
      "inputs": [],
      "name": "NotVerified",
      "type": "error"
    },
    {
      "inputs": [],
      "name": "StringTooLong",
      "type": "error"
    },
    {
      "anonymous": false,
      "inputs": [
        {
          "indexed": true,
          "internalType": "uint256",
          "name": "challengeId",
          "type": "uint256"
        },
        {
          "indexed": true,
          "internalType": "address",
          "name": "challenger",
          "type": "address"
        },
        {
          "indexed": true,
          "internalType": "uint256",
          "name": "expectedProfit",
          "type": "uint256"
        }
      ],
      "name": "ChallengeCreated",
      "type": "event"
    },
    {
      "anonymous": false,
      "inputs": [
        {
          "indexed": true,
          "internalType": "uint256",
          "name": "challengeId",
          "type": "uint256"
        },
        {
          "indexed": true,
          "internalType": "bool",
          "name": "verified",
          "type": "bool"
        },
        {
          "indexed": true,
          "internalType": "uint256",
          "name": "solverNickname",
          "type": "uint256"
        }
      ],
      "name": "ChallengeVerified",
      "type": "event"
    },
    {
      "inputs": [],
      "name": "challengeIdCount",
      "outputs": [
        {
          "internalType": "uint256",
          "name": "",
          "type": "uint256"
        }
      ],
      "stateMutability": "view",
      "type": "function"
    },
    {
      "inputs": [
        {
          "internalType": "uint256",
          "name": "",
          "type": "uint256"
        },
        {
          "internalType": "uint256",
          "name": "",
          "type": "uint256"
        }
      ],
      "name": "challenges",
      "outputs": [
        {
          "internalType": "bytes32",
          "name": "",
          "type": "bytes32"
        }
      ],
      "stateMutability": "view",
      "type": "function"
    },
    {
      "inputs": [
        {
          "internalType": "address",
          "name": "challengerAddress",
          "type": "address"
        },
        {
          "internalType": "uint256",
          "name": "expected_profit_percentage",
          "type": "uint256"
        },
        {
          "internalType": "address[5]",
          "name": "holdings",
          "type": "address[5]"
        },
        {
          "internalType": "address",
          "name": "platform",
          "type": "address"
        }
      ],
      "name": "createChallenge",
      "outputs": [],
      "stateMutability": "nonpayable",
      "type": "function"
    },
    {
      "inputs": [
        {
          "internalType": "uint256",
          "name": "challengeId",
          "type": "uint256"
        }
      ],
      "name": "getChallengeDetails",
      "outputs": [
        {
          "internalType": "address",
          "name": "challengerAddress",
          "type": "address"
        },
        {
          "internalType": "address",
          "name": "platform",
          "type": "address"
        },
        {
          "internalType": "address[5]",
          "name": "holdings",
          "type": "address[5]"
        },
        {
          "internalType": "uint256",
          "name": "expected_profit_percentage",
          "type": "uint256"
        }
      ],
      "stateMutability": "view",
      "type": "function"
    },
    {
      "inputs": [
        {
          "internalType": "uint256",
          "name": "challengeId",
          "type": "uint256"
        },
        {
          "internalType": "bytes",
          "name": "_proof",
          "type": "bytes"
        },
        {
          "internalType": "uint256",
          "name": "solverNickname",
          "type": "uint256"
        }
      ],
      "name": "getVerified",
      "outputs": [
        {
          "internalType": "bool",
          "name": "_verified",
          "type": "bool"
        }
      ],
      "stateMutability": "nonpayable",
      "type": "function"
    },
    {
      "inputs": [
        {
          "internalType": "string",
          "name": "source",
          "type": "string"
        }
      ],
      "name": "stringToBytes32",
      "outputs": [
        {
          "internalType": "bytes32",
          "name": "result",
          "type": "bytes32"
        }
      ],
      "stateMutability": "pure",
      "type": "function"
    }
  ],
  "bytecode": {
    "object": "0x60806040526001805534801561001457600080fd5b5060405161002190610063565b604051809103906000f08015801561003d573d6000803e3d6000fd5b50600080546001600160a01b0319166001600160a01b0392909216919091179055610070565b612d6980610b5d83390190565b610ade8061007f6000396000f3fe608060405234801561001057600080fd5b50600436106100625760003560e01c80633d40a54f1461006757806349205d8414610093578063cfb51928146100a8578063dd9e8de9146100c9578063eca099d0146100dc578063f1623ea9146100ff575b600080fd5b61007a61007536600461073d565b610108565b60405161008a9493929190610756565b60405180910390f35b6100a66100a13660046107cd565b6102dc565b005b6100bb6100b6366004610838565b610519565b60405190815260200161008a565b6100bb6100d73660046108e9565b610546565b6100ef6100ea36600461090b565b610577565b604051901515815260200161008a565b6100bb60015481565b6000806101136106bf565b600060015485106101625760405162461bcd60e51b8152602060048201526014602482015273125b9d985b1a590818da185b1b195b99d948125160621b60448201526064015b60405180910390fd5b6000858152600260209081526040808320805482518185028101850190935280835291929091908301828280156101b857602002820191906000526020600020905b8154815260200190600101908083116101a4575b5050505050905080516009146102095760405162461bcd60e51b8152602060048201526016602482015275496e76616c6964206368616c6c656e6765206461746160501b6044820152606401610159565b8060008151811061021c5761021c61098d565b602002602001015160001c94508060018151811061023c5761023c61098d565b602002602001015160001c935060005b60058110156102b357816102618260026109b9565b815181106102715761027161098d565b602002602001015160001c84826005811061028e5761028e61098d565b6001600160a01b039092166020929092020152806102ab816109d2565b91505061024c565b50806007815181106102c7576102c761098d565b602002602001015160001c9150509193509193565b60408051600980825261014082019092526000916020820161012080368337019050509050846001600160a01b031660001b816000815181106103215761032161098d565b602002602001018181525050816001600160a01b031660001b8160018151811061034d5761034d61098d565b602090810291909101810191909152610368908401846109eb565b6001600160a01b031660001b816002815181106103875761038761098d565b60209081029190910101528260016020020160208101906103a891906109eb565b6001600160a01b031660001b816003815181106103c7576103c761098d565b60209081029190910101526103e260608401604085016109eb565b6001600160a01b031660001b816004815181106104015761040161098d565b602090810291909101015261041c60808401606085016109eb565b6001600160a01b031660001b8160058151811061043b5761043b61098d565b602090810291909101015261045660a08401608085016109eb565b6001600160a01b031660001b816006815181106104755761047561098d565b6020026020010181815250508360001b816007815181106104985761049861098d565b6020908102919091018101919091526001546000908152600282526040902082516104c5928401906106dd565b5060015460405185916001600160a01b038816917f4392aedf3bdc85e85ccf5c599cb7976a5b4f7b7189118379628127df3f40b10490600090a460016000815461050e906109d2565b909155505050505050565b600060208251111561053e57604051631623655b60e31b815260040160405180910390fd5b506020015190565b6002602052816000526040600020818154811061056257600080fd5b90600052602060002001600091509150505481565b6000848152600260209081526040808320805482518185028101850190935280835284938301828280156105ca57602002820191906000526020600020905b8154815260200190600101908083116105b6575b505050505090508260001b816008815181106105e8576105e861098d565b6020908102919091010152600054604051633a94343960e21b81526001600160a01b039091169063ea50d0e49061062790889088908690600401610a0d565b602060405180830381865afa925050508015610660575060408051601f3d908101601f1916820190925261065d91810190610a86565b60015b61067d5760405163a95362b560e01b815260040160405180910390fd5b83811515887f6245bf0600f3c808ebba99f116312f212337d9c10f5a9f4ab34bd154d6038a5060405160405180910390a491506106b79050565b949350505050565b6040518060a001604052806005906020820280368337509192915050565b828054828255906000526020600020908101928215610718579160200282015b828111156107185782518255916020019190600101906106fd565b50610724929150610728565b5090565b5b808211156107245760008155600101610729565b60006020828403121561074f57600080fd5b5035919050565b6001600160a01b03858116825284811660208084019190915261010083019190604084018660005b600581101561079d57815185168352918301919083019060010161077e565b50505050508260e083015295945050505050565b80356001600160a01b03811681146107c857600080fd5b919050565b60008060008061010085870312156107e457600080fd5b6107ed856107b1565b93506020850135925060e085018681111561080757600080fd5b604086019250610816816107b1565b91505092959194509250565b634e487b7160e01b600052604160045260246000fd5b60006020828403121561084a57600080fd5b813567ffffffffffffffff8082111561086257600080fd5b818401915084601f83011261087657600080fd5b81358181111561088857610888610822565b604051601f8201601f19908116603f011681019083821181831017156108b0576108b0610822565b816040528281528760208487010111156108c957600080fd5b826020860160208301376000928101602001929092525095945050505050565b600080604083850312156108fc57600080fd5b50508035926020909101359150565b6000806000806060858703121561092157600080fd5b84359350602085013567ffffffffffffffff8082111561094057600080fd5b818701915087601f83011261095457600080fd5b81358181111561096357600080fd5b88602082850101111561097557600080fd5b95986020929092019750949560400135945092505050565b634e487b7160e01b600052603260045260246000fd5b634e487b7160e01b600052601160045260246000fd5b808201808211156109cc576109cc6109a3565b92915050565b6000600182016109e4576109e46109a3565b5060010190565b6000602082840312156109fd57600080fd5b610a06826107b1565b9392505050565b60408152826040820152828460608301376000606084830101526000601f19601f8501168201606081016020606085840301818601528186518084526080850191508288019450600093505b80841015610a795784518252938201936001939093019290820190610a59565b5098975050505050505050565b600060208284031215610a9857600080fd5b81518015158114610a0657600080fdfea26469706673582212205aa6d1b2591fa300f876edfb2d862388c9a0fff17bf3fed40bc8a160f0075da564736f6c63430008130033608060405234801561001057600080fd5b50612d49806100206000396000f3fe608060405234801561001057600080fd5b50600436106100365760003560e01c8063937f6a101461003b578063ea50d0e41461006e575b600080fd5b6040517f9931f67f91d2281cccd2aeb14dad2a57d75cf45a5127728a5e7fd942d6177da081526020015b60405180910390f35b61008161007c366004612c4e565b610091565b6040519015158152602001610065565b620100006103805260096103a0527eeeb2cb5981ed45649abebde081dcff16c8601de4347e7dd1628ba2daac43b76103c0527f30641e0e92bebef818268d663bcad6dbcfd6c0149170f6d7d350b1b1fa6c10016103e0527f211c6d1a6dcb384f453fe89aff280fe05b528eb0d40f92dc16f9f7de35f2ab62610400527f0edccde2b43aa752f7388e26ab13d1823900ff6c9bf6ae626467ab9b37f56033610420527f0254191e12391587c4a37537a155a12c5c018b9dd5899d4fa93980c2b25ca752610440527f11d8490f1bf635fb4e8382ff1543d197ca50126e1cbb3ed0a15be66fc577d25b610460527f24845e740ccdc11a1dd81cbe6ed71eac220db4c27130466fd2843c98d69f0332610480527f3023fabc980276aa37f1414990082f2984a8683c1b121630d5898a72fbda9bc76104a0527f2b6180344d1dfd305d3841e2861b1c8a90fd36ed48a985d0529b457ce03fe6ea6104c0527f2c66d128a2d2d4c4df634a9ceb4485bf76a275361062c4ba1130f4066a255d956104e0527f287b92083b205946247271c5d959f9deb1704baf1e1f21d961ae07982913e4b2610500527f1bc0d930ce5fe8bb9d8722a96d96294f98c9b1342e60bf6bcd3a75de9771f06e610520527f1b5587e1a7b4c727856184fd89f7ca81c6f92f4cf68cd0f1a2a6b38758b93358610540527f23ee1dbdf2c34118eebc66efc5bb31e7e44763411755e1606a4dbeb81ab53ae0610560527f19eb0951ff5571a6152c4d2264488419f44ed6f665277ea91ba55f6739b24949610580527f0bc5e79ca1f643d6e4616afe35dbfdf8c1f8a8b965fe01bc40a69f03257ab0096105a0527f113722b2d63ee3f243d27e320f276be0410fcf07745963b67b70cd6bd1af3e5c6105c0527f02bcb1adab382b4d3be75899359c89db186c6871ef38bb70f9bfbdc72d49d0386105e0527f21245d6c0a4d2ff12b21a825f39f30e8f8cf9b259448d111183e975828539576610600527f16a409532c8a1693536e93b6ce9920bfc2e6796e8dfe404675a0cdf6ee77ee7a610620527f2eb5e3374b068fcb1ee6f670b13d8df1b99b41b44e5b757a9b22d46de0259577610640527f047d16a4175b516e93c7e8c326c040d0e59ea982906477be6dd40ac5d0e36ed8610660527f102065a56b41fe8966661b7fdb65dc786c815b8a9dc807dde15f650baef2c622610680527f27417022b91cfc728b08cc1da874f4cdb315394a2768cc04683341215d9f57906106a0527f1f3273a59fd56ef5d819f41b692b96a3e36413f9308d9c4e7d2cb550afe5ac346106c0527f272575261c960264d1a61b41d0343953b130fb5893f75add2435153a8e3041e06106e0527f0c000249d6386cc90533e878f45858f8000223d0c11e499af4b7879641bd3b3b610700527f1428060db8a35fbe576e16548b5281e3f1ef7e87709ebac0be87db60245910e6610720527f100c8f60d591577296bf902278424ec262faa8cc0b2688a8ff06c3acd9375cff610740527f01bbd0412d7f2966df762e463814a4c90e2ed722c5d232221c8616d6614c7d10610760527f06e6d1480535f6e29a6713cd5c4e668464cbdac425322b2d3b98a34e8834c14f610780527f15c1b7ea4800a867676fc4c79695b5b27b0e702d7d6188d0ad0259936cb3e55f6107a0527f030b16cd4d48e7b40d2ac90b515369aabc0c273bd7c77f122e9993c2251f7f4a6107c0527f07578950db871ef62bab02e94473298e53701113cc0c09573d1ccdbb99ab49b76107e0527f1bbfe736b28dc8ede22ad6ba3ecec3607de18a29cee6828a7303d33ceb1e2ef0610800527f2e0a348344704012f149db2aed39ea37d1fe96d4d91f803026f17ed9a0449907610820527f273714e498d7ee7471cf8859c5db4113e86f6acee195b29fd0e5953728135962610840527f2997e7f0a5012a52da8388d912ce58fffbab8f6b5d56b6c289ab367fd72f242a610860527f24591841b161169baf2fb62d848c2b452c2e514a96c9b7a35ac2c3dc3dc5db1c610880527f2fc2f7a1d5c9285c291c7ba69f1f4e82ba6fcee4a145d64fb4de3a993e0272ab6108a0527f011d3ea06dd7892d02688fd229d86009d0bcc77b91d401ead36e8b1e9ad68b506108c0527f216938c897ecfc6bfe9d02ec358ae64be25c0673dd587cbfb70adc551f26e38a6108e0527f025178b35d5eb286c2abbb75ca0b7830b75cdc35251bbe3eea32d1ad52ed1e51610900527f12b8deb22878c009d99cec7604c96e4845f58ddaa414254b9e1f79a87e43fec1610920527f0a3ea76de9abe752d5bf710185be8271a2cf6fe3e9b4e91c6aa6b4435034f626610940527f24057def7a775fa290d6ff272fb8f2da19cd63a5a4392426cd67a130f8bbf970610960527f035d2a2cad1b19f1320c1a23cc3be68af3c19cc9e279c696fc0edc0e56f478d8610980527f21e012048b29f8b8b3aaf1bcf52c797e6124fda4eee08bb96d2b5f9a7be52f476109a05260006109c08190526109e08190527f260e01b251f6f1c7e7ff4e580791dee8ea51d87a358e038b4efe30fac09383c1610a00527f0118c4d5b837bcc2bc89b5b398b5974e9f5944073b32078b7e231fec938883b0610a20527f04fc6369f7110fe3d25156c1bb9a72859cf2a04641f99ba4ee413c80da6a5fe4610a40527f22febda3c0c0632a56475b4214e5615e11e6dd3f96e6cea2854a87d4dacc5e55610a60527f0b5d56b77fe704e8e92338c0082f37e091126414c830e4c6922d5ac802d842d4613400526103a05182811461088757604051637667dc9b60e01b8152600481018290526024810184905260440160405180910390fd5b7f30644e72e131a029b85045b68181585d97816a916871ca8d3c208c16d87cfd477f30644e72e131a029b85045b68181585d2833e84879b9709143e1f593f00000016024600435018281350661122052826020820135066112005282604082013506611260528260608201350661124052826080820135066112a0528260a082013506611280528260c0820135066112e0528260e0820135066112c05282610100820135066113205282610120820135066113005282610140820135066113605282610160820135066113405282610180820135066113a052826101a08201350661138052826101c0820135066113e052826101e0820135066113c05282610200820135066114205282610220820135066114005282610240820135066114605282610260820135066114405282610280820135066114a052826102a08201350661148052816102c08201350661160052816102e0820135066116205281610300820135066116405281610320820135066116605281610340820135066116805281610360820135066116a05281610380820135066116c052816103a0820135066116e052816103c08201350661170052816103e0820135066117205281610400820135066117405281610420820135066117605281610440820135066117805281610460820135066117a05281610480820135066117c052816104a0820135066117e052816104c08201350661180052816104e0820135066119605281610500820135066119805281610520820135066119a05281610540820135066119c052816105608201350661184052816105808201350661186052816105a08201350661188052816105c0820135066118a052816105e0820135066118c05281610600820135066118e05281610620820135066119005281610640820135066119205281610660820135066119405281610680820135066119e052816106a08201350661200052816106c08201350661202052816106e0820135066120405281610700820135066120605281610720820135066120805281610740820135066120a05281610760820135066120c05281610780820135066120e052816107a08201350661210052816107c08201350661212052826107e08201350661232052826108008201350661230052826108208201350661236052826108408201350661234052506109c05115610ce9576024803501806109e05160051b0190508035602082013560441b81019050604082013560881b81019050606082013560cc1b81019050608082013560a083013560441b8101905060c083013560881b8101905060e083013560cc1b8101905061010083013561012084013560441b8101905061014084013560881b8101905061016084013560cc1b810190506101808401356101a085013560441b810190506101c085013560881b810190506101e085013560cc1b810190508361350052826135205281613540528061356052868110878410168783108886101616610ce3576375d4fa5360e11b60005260046000fd5b50505050505b6103805160e01b6000526103a05160e01b60045260086000208061358052602480350160206103a05102808260206135800137600435602401915060c0826135a083013760e0016135802083810661266081905290925090508281800961268052828161268051096126a05250806000526112e0516020526112c051604052611320516060526113005160805260a0600020905081810661260052806000526001602053506021600090812082810661262052815261136051602052611340516040526113a0516060526113805160805260a09020818106612640819052828180096134205282816134205109613440528281613440510961346052806134805250806000526113e0516020526113c05160405261142051606052611400516080526114605160a0526114405160c0526114a05160e052611480516101005261012060002090508181066126c052806126e0525061260051612620516103c051600180856001602480350160206103a0510281018360058a0984600c8b0999505b81831015610ea957823585811085169450858a82089050858183018909975085818c01880996505084888209905084888b099950602083019250610e6a565b50505080610ec25763374a972f60e01b60005260046000fd5b50508161300052806130205250505050508081600161260051086126205109806103805160015b81811015610efe578483840992508001610ee9565b5050613100528181800990508181820961312052506126c05161038051819060015b81811015610f35578483840992508001610f20565b50508061304052826001840382089050613400518084036103e051858286088684840992508687848808820990508684840992508687848808820990508687888686098808820990506103c051925086828609915086600188038708878485099450876001890389898b888d8b8c0909090896506130205194508493508782860994508488878709955085898388099650868a61312051890997508760206000526020805260206040528b8b8a0960605260028c036080528b60a0526020600060c0600060055afa61101257633e2529ef60e21b60005260046000fd5b60005198508b818a0990508b8b8a0998508b828a0991508b613120518a0998508b838a0992508b858a0998508b848a0993508b8a8a0998508b888a0997508b868a0998508b613020518d8b8c090998508b896130005109613060528b888b09613080528b848709613780528b8388096130a0528b826131005109613140528b8188096130c052505050505050505050505061264051506126005161262051828361190051840982611620510101846118e051850983611600510101098384611940518509836116605101018561192051860984611640510101098485868385096116a051096134805109858661198051870985611620510101876119605188098661160051010109925085866119c051870985611660510101876119a0518809866116405101010991508586878885870961208051096134805109870382089050856126405161348051096134805285868788613060518a0361208051086130c0510961348051098208905085612640516134805109613480528586878860018a036116a051086130a05109613480510982086136005250505050508061264051613480510961348052806117205161266051098182836120205161178051096116405108820890508161266051820990508182836120005161176051096116205108820890508161266051820990508182836119e0516117005109611600510882089050816118405183846126605161186051098586612680516118805109876126a0516118a05109080808826120c0518485612660516120e051098687612680516121005109886126a051612120510908080883846001612600510861262051098461262051866118c051870908935084818687612600518609860808925084838509935084856001612600510885099350846130a05161264051099250848385089350846116c0518509935084838603850893508481868761260051612060510961168051080892505050826130c05161342051098381850383089150836120a05183099150838461314051830983089150508261348051848386038508096136205250508061344051613480510961348052806116e0516116005109816117005161162051098261172051611640510983611740516116605109847f183227397098d014dc2822db40c0ac2e9419f4243cdcb848a1f0fac9f80000008687600389036117a0510888611760518a6116205161160051090909098586878889858a08880886088408611780510894505050505081828384856116605161160051086119e051870308611760510884600286036117a05108096126405109828384858685612040510887600189036117a051080985086117a05109613480510961364052505080613420516134805109613480526002810360038203826116005184036116205108836116205185036116405108846116405186036116605108856116605187036119e05108866134805188898888088a8b8b8a088c8a8e038e8c8d09080909099350868788612640516134805109898a8988088b8c8c8a088d8a8f038f8c8d090809090985089350868788613420516134805109898a8987088b8c8c89088d898f038f8b8c090809090985089350868788613440516134805109898a8986088b8c8c88088d888f038f8a8b090809090985089350505050836117c051820961366052505061346051613480518392500961348052806116205182036119e051088161204051612040510982611640516116405109836116e05185612040516116405109098485868384088785870888030886878788098889611620516119e0510861200051080908925050508261348051848561176051870360010884090990508261202051611640510883611640518503856116e05161204051090884858287611620518903612000510809868685090893505050828361264051613480510984856117605187036001088509099150826117e0518484840809613680525050806116205161162051098161164051611640510982611620518460118408098360048309915083600982099050836003840992508381850385848788611620516116205108612000510809089150508283846120205161164051088561164051611640510809840384856120005187036116205108850908915082613480518209905082836126405161348051098309915082611760518209905082611760518309915082836117e0518585850809613680510861368052505080613460516134805109613480528081611620516119e05109826120005161160051090881612020518303838461164051611620510985611660516116005109080882600160441b82099050826120405184038208905082828208905082611740518209905082600160441b830991508283612000516119e05109830891508261172051848561166051611640510886038508098361176051858661204051612020510887038761166051880808099250836117005185858786860808096136c0525050612000518291506140009009816119e0518208905081614000820990508161164051820890508161400082099050816116205182089050816140008209905081611600518208905081611660518303820890508161174051820990508161400061202051098261200051820890508261400082099050826119e05182089050826140008209905082611660518208905082614000820990508261164051820890508261204051840382089050826117605182099050826117205184838508096136e0525050806126605161164051098161162051820890508161266051820990508161160051820890508161266051820990508161178051820890508082611660518403830891508161374052826116005184036119e05108836116605185036120405108848560018703840883098586848803600108830991508585876126405189858b61264051890908090861372052856126605161202051099450856120005186089450856126605186099450856119e0518608945085612660518609945085858703612040510894508561164051870361202051089150858687878903600108840987858903600108099150858487036116605108868760018903830882099050868760018903880887099550866126405184099250868284089250866126405184099250868684089250866126405184099250868184089250508161370052505083611620518503612000510892508361164051850385868488036001088609089250836117005161372051099150838461174051850983089150838461176051613740510983089150836116e0518309915083846117a051613700510983089150836136c05183089250836136e05184089250836118005184099250836134805184099250826136a05283613440516134805109613480525050508061378051826136a0518461368051866136605188613640518a61362051613600510808080808096137608190526126e0516137a08190526137c0919091526102e460043501610520816137e03750506105606137a020818106612700526000819052600160205381602160002006612720526002602053816021600020066127405260036020538160216000200661276052600460205381602160002006612780526005602053816021600020066127a0526006602053816021600020066127c0526007602053816021600020066127e0526008602053816021600020066128005260096020538160216000200661282052600a6020538160216000200661284052600b6020538160216000200661286052600c6020538160216000200661288052600d602053816021600020066128a052600e602053816021600020066128c052600f602053816021600020066128e05260106020538160216000200661290052601160205381602160002006612920526012602053816021600020066129405260136020538160216000200661296052601460205381602160002006612980526015602053816021600020066129a0526016602053816021600020066129c0526017602053816021600020066129e052601860205381602160002006612a0052601960205381602160002006612a2052601a60205381602160002006612a4052601b60205381602160002006612a6052601c60205381602160002006612a8052601d60205381602160002006612aa052601d6020535060216000908120828106612ac05281526123205160205261230051604052612360516060526123405160805260a08120829006612b00526113c0516113e0518482800985600387838609088683840914935050816131605280602061316001525050611400516114205184828309856003878386090886838409148416935050816000528060205250506130405160405260406131a06060600060075afa16604061316060808160065afa81169050611440516114605184828309856003878386090886838409148416935050816000528060205250508161304051613040510960405260406131a06060600060075afa16604061316060808160065afa81169050611480516114a05184828309856003878386090886838409148416935050816000528060205250508161304051836130405161304051090960405260406131a06060600060075afa16604061316060808160065afa81169050611200516112205184828309856003878386090886838409148416935050816000528060205250508161270051836001612b0051080960405260406131a06060600060075afa16604061316060808160065afa81169050611240516112605184828309856003878386090886838409148416935050816000528060205250508161272051836001612b0051080960405260406131a06060600060075afa16604061316060808160065afa81169050611280516112a05184828309856003878386090886838409148416935050816000528060205250508161274051836001612b0051080960405260406131a06060600060075afa16604061316060808160065afa811690506112c0516112e05184828309856003878386090886838409148416935050816000528060205250508161276051836001612b0051080960405260406131a06060600060075afa16604061316060808160065afa81169050611300516113205184828309856003878386090886838409148416935050816000528060205250508161278051836001612b0051080960405260406131a06060600060075afa16604061316060808160065afa8116905061134051611360518482830985600387838609088683840914841693505081600052806020525050816127a051836001612b0051080960405260406131a06060600060075afa16604061316060808160065afa81169050611380516113a0518482830985600387838609088683840914841693505081600052806020525050816127c051836001612b0051080960405260406131a06060600060075afa16604061316060808160065afa81169050610400516104205184828309856003878386090886838409148416935050816000528060205250506127e05160405260406131a06060600060075afa16604061316060808160065afa81169050610440516104605184828309856003878386090886838409148416935050816000528060205250506128005160405260406131a06060600060075afa16604061316060808160065afa81169050610480516104a05184828309856003878386090886838409148416935050816000528060205250506128205160405260406131a06060600060075afa16604061316060808160065afa811690506104c0516104e05184828309856003878386090886838409148416935050816000528060205250506128405160405260406131a06060600060075afa16604061316060808160065afa81169050610500516105205184828309856003878386090886838409148416935050816000528060205250506128605160405260406131a06060600060075afa16604061316060808160065afa81169050610540516105605184828309856003878386090886838409148416935050816000528060205250506128805160405260406131a06060600060075afa16604061316060808160065afa81169050610580516105a05184828309856003878386090886838409148416935050816000528060205250506128a05160405260406131a06060600060075afa16604061316060808160065afa811690506105c0516105e05184828309856003878386090886838409148416935050816000528060205250506128c05160405260406131a06060600060075afa16604061316060808160065afa81169050610600516106205184828309856003878386090886838409148416935050816000528060205250506128e05160405260406131a06060600060075afa16604061316060808160065afa81169050610640516106605184828309856003878386090886838409148416935050816000528060205250506129005160405260406131a06060600060075afa16604061316060808160065afa81169050610680516106a05184828309856003878386090886838409148416935050816000528060205250506129205160405260406131a06060600060075afa16604061316060808160065afa811690506106c0516106e05184828309856003878386090886838409148416935050816000528060205250506129405160405260406131a06060600060075afa16604061316060808160065afa81169050610700516107205184828309856003878386090886838409148416935050816000528060205250506129605160405260406131a06060600060075afa16604061316060808160065afa81169050610740516107605184828309856003878386090886838409148416935050816000528060205250506129805160405260406131a06060600060075afa16604061316060808160065afa81169050610780516107a0518482830985600387838609088683840914841693505081600052806020525050816129a051836001612b0051080960405260406131a06060600060075afa16604061316060808160065afa811690506107c0516107e0518482830985600387838609088683840914841693505081600052806020525050816129c051836001612b0051080960405260406131a06060600060075afa16604061316060808160065afa8116905061080051610820518482830985600387838609088683840914841693505081600052806020525050816129e051836001612b0051080960405260406131a06060600060075afa16604061316060808160065afa811690506108405161086051848283098560038783860908868384091484169350508160005280602052505081612a0051836001612b0051080960405260406131a06060600060075afa16604061316060808160065afa81169050610880516108a0518482830985600387838609088683840914841693505081600052806020525050612a205160405260406131a06060600060075afa16604061316060808160065afa811690506108c0516108e0518482830985600387838609088683840914841693505081600052806020525050612a405160405260406131a06060600060075afa16604061316060808160065afa8116905061090051610920518482830985600387838609088683840914841693505081600052806020525050612a605160405260406131a06060600060075afa16604061316060808160065afa8116905061094051610960518482830985600387838609088683840914841693505081600052806020525050612a805160405260406131a06060600060075afa16604061316060808160065afa81169050610980516109a0518482830985600387838609088683840914841693505081600052806020525050612aa05160405260406131a06060600060075afa16604061316060808160065afa8116905081826116005184612b00516119e051090861270051098283846116205186612b00516120005109086127205109820890508283846116405186612b00516120205109086127405109820890508283846116605186612b00516120405109086127605109820890508283846116805186612b00516120605109086127805109820890508283846116a05186612b00516120805109086127a05109820890508283846116c05186612b00516120a05109086127c051098208905082836116e0516127e051098208905082836117005161280051098208905082836117205161282051098208905082836117405161284051098208905082836117605161286051098208905082836117805161288051098208905082836117a0516128a051098208905082836117c0516128c051098208905082836117e0516128e051098208905082836118005161290051098208905082836119605161292051098208905082836119805161294051098208905082836119a05161296051098208905082836119c0516129805109820890508283846118405186612b00516120c05109086129a05109820890508283846118605186612b00516120e05109086129c05109820890508283846118805186612b00516121005109086129e05109820890508283846118a05186612b0051612120510908612a0051098208905082836118c051612a2051098208905082836118e051612a40510982089050828361190051612a60510982089050828361192051612a80510982089050828361194051612aa0510982089050826137605182089050600160005260026020528083036040525060406131a06060600060075afa16604061316060808160065afa16613360819052612b00516126c05161230051612320518682800987600389838609088883840914955050816000528060205250508060405260406131a06060600060075afa831692506040613160608061316060065afa8316925061234051612360518682830987600389838609088883840914861695505081600052806020525050836103c05185838509096040525060406131a06060600060075afa821691506040613220608061316060065afa8216915061230051600052612320516020526123405160405261236051606052806080526040806060604060075afa8216915060406131e06080600060065afa82169150613200518403613200526109c05115612b155761350051613520518582830986600388838609088783840914851694505081600052806020525050828182096040526040606080600060075afa8216915061354051613560518582830986600388838609088783840914851694505081600052806020525050604060006060600060075afa821691506132205160a0526132405160c05260406132206080606060065afa821691506131e0516040526132005160605260406131e06080600060065afa821691505b5080612b2c5763f755f36960e01b60005260046000fd5b806133805261322051600052613240516020527f198e9393920d483a7260bfb731fb5d25f1aa493335a9e71297e485b7aef312c26040527f1800deef121f1e76426a00665e5c4479674322d4f75edadd46debd5cd992f6ed6060527f090689d0585ff075ec9e99ad690c3395bc4b313370b38ef355acdadcd122975b6080527f12c85ea5db8c6deb4aab71808dcb408fe3d1e7690c43d37b4ce6cc0166fa7daa60a0526131e05160c0526132005160e052610a005161010052610a205161012052610a405161014052610a60516101605260206000610180600060085afa9050806133a0526000516133c05250505061336051613380516133c0516133a051161616612c43576301c47f3b60e21b60005260046000fd5b600160005260206000f35b60008060008060408587031215612c6457600080fd5b843567ffffffffffffffff80821115612c7c57600080fd5b818701915087601f830112612c9057600080fd5b813581811115612c9f57600080fd5b886020828501011115612cb157600080fd5b602092830196509450908601359080821115612ccc57600080fd5b818701915087601f830112612ce057600080fd5b813581811115612cef57600080fd5b8860208260051b8501011115612d0457600080fd5b9598949750506020019450505056fea26469706673582212205998bf80f0624b9289dbf257d800f966815e78c1830b588226b03d73c8fe186664736f6c63430008130033",
    "linkReferences": {}
  },
  "methodIdentifiers": {
    "challengeIdCount()": "f1623ea9",
    "challenges(uint256,uint256)": "dd9e8de9",
    "createChallenge(address,uint256,address[5],address)": "49205d84",
    "getChallengeDetails(uint256)": "3d40a54f",
    "getVerified(uint256,bytes,uint256)": "eca099d0",
    "stringToBytes32(string)": "cfb51928"
  },
  "id": 1
}